:1000000055C000006EC000006CC000006AC0000057
:1000100068C0000066C0000064C0000062C000004C
:1000200060C000005EC000005CC000005AC000005C
:1000300058C0000056C0000054C0000052C000006C
:1000400050C000004EC000004CC000004AC000007C
:1000500048C0000046C0000044C0000042C000008C
:1000600040C000003EC000003CC000003AC000009C
:1000700038C0000036C0000034C0000032C00000AC
:1000800030C000002EC000002CC000002AC00000BC
:100090002DC2000026C0000024C0000022C00000C5
:1000A00020C000001EC000001CC0000011241FBEA4
:1000B000CFEFDAE0DEBFCDBF11E0A0E0B1E0E2EECD
:1000C000F8E002C005900D92A832B107D9F721E0FF
:1000D000A8E2B1E001C01D92A239B207E1F704D154
:1000E000FEC38ECFCF93DF9314BE0FB6F894A895BE
:1000F00080916000886180936000109260000FBE64
:1001000000D13F9A479804B603FE04C0F89447987C
:10011000C0E001C0C1E08C2F1CD141E050E060E0A4
:1001200070E081E991E077D397FF0AC088E080937F
:10013000910141E050E060E070E081E991E052D34C
:1001400044D13E9A81E88093900082E080939100B0
:100150008091910180939800809191018093280172
:1001600084D28EE78093BA0085EC8093BC004798D8
:1001700084B7886084BF8C2FFBD0D6E08C2F09D148
:1001800083E390E0019739F0EFE9FFE03197F1F771
:1001900000C00000F7CFD15089F79DE088E10FB68D
:1001A000F894A895809360000FBE909360007894B7
:1001B000DF91CF9108951ED18091910190912801F6
:1001C000981769F08093980080919101809328019D
:1001D00041E050E060E070E081E991E003D3A89550
:1001E00008950F931F93CF93643009F454C08C018A
:1001F000653009F04CC0FC018085882311F0C0E017
:100200004BC0C8019FD28093290180912901882386
:1002100079F080912901813059F0CFEF39C0C801C0
:1002200091D2982F80912901882339F08130F1F003
:10023000F8018085882399F3E2CFC92FCF71E0912F
:100240002901F0E0E65DFE4F8081C81789F3E09157
:100250002901F0E0E65DFE4F80818C275BD0E091C4
:100260002901F0E0E65DFE4FC083E2CFE091290175
:10027000F0E0E65DFE4F80819817D1F2E091290110
:10028000F0E0E65DFE4F908390939101D1CFC0E006
:10029000C80132D201C0CEEF8C2FCF911F910F91A8
:1002A0000895CF93DF9365506230C0F4EC018091E4
:1002B0002901823018F0823041F012C0E09129010A
:1002C000F0E0E65DFE4F608107C082D0882319F020
:1002D000CE0183D003C060E0CE013FD280E001C0F8
:1002E0008FEFDF91CF910895FDDE65DFFECF95B1F1
:1002F000282F2170922795B99BB1887B89278BB9CC
:100300000895209A8AB1886B8AB928988BB187742E
:100310008BB908950F931F93CF93DF93C0E0D0E084
:10032000082F10E0C8010C2E02C0959587950A94FD
:10033000E2F780FF05C0FE01EE5DFE4F8081D7DF52
:100340002196C530D10571F7DF91CF911F910F91A3
:10035000089595B1E82FF0E0EE5DFE4F8081282FE3
:100360002170922B95B99BB1887B892B8BB908950D
:10037000E82FF0E0EE5DFE4F808125B1982F91705F
:100380009095922395B99BB1887B809589238BB9F1
:100390000895E82FF0E0EE5DFE4F8081A8CFCF9367
:1003A00090914D01982379F090914C01892309F4A3
:1003B000606880910901811106C0CFB7F89480E090
:1003C00091E0CBD1CFBFCF91089510924D0138C0AD
:1003D0009091080181E089270895CF93DF93EC0184
:1003E00080E091E056D1AC0160E071E0CE01DF9198
:1003F000CF91D1C188EF2DD080934C0190914D01C8
:100400008917B1F0982790934D0161E080E1C7DF33
:1004100062E088E0C4DF63E080E4C1DF64E080E89C
:10042000BEDF65E080E2BBDF80914C0180934D012F
:1004300080910801811102C0479A08954798089554
:1004400085B1806F85B984B18F7084B95E9A5698F2
:10045000089529B143B190E42927207430E053E096
:10046000359527955A95E1F730EF4327407F242BA8
:10047000282340914E01241303C080914E0108951A
:1004800049B163B194279074492F50E093E055959A
:1004900047959A95E1F73627307F432B482342133F
:1004A000ECCF40934E0185E190E0019731F3EFE905
:1004B000FFE03197F1F700C00000F7CF80911E01F7
:1004C000882329F08FEF8093BB0085E806C086E182
:1004D00091E038D18093BB0085EC8093BC000895F7
:1004E00086E191E009D18BE091E006C11F920F9265
:1004F0000FB60F9211242F933F934F935F936F93F7
:100500007F938F939F93AF93BF93EF93FF938091CC
:10051000B900887F8039E1F1A0F4803779F140F4A7
:10052000803679F1883669F1811186C08DEF85C0FA
:10053000803871F1883809F43CC0883709F07CC0F4
:100540001DC0803B09F456C050F4803A09F442C003
:10055000883A09F44FC0883909F06EC02AC0803C3F
:1005600009F466C020F4883B09F45DC065C0883C8E
:1005700009F45EC0883F09F467C05EC084E08093E0
:10058000210180E2809390018BE091E0B5D052C0D0
:100590008091140181110BC06091BB008BE091E050
:1005A000DCD08BE091E096D0029708F043C085E85C
:1005B00049C080911401811105C06091BB008BE09E
:1005C00091E0CBD0609121018BE091E00ADE809335
:1005D0008F0130C085EC8093BC00609121018BE0DD
:1005E00091E0FFDD80938F0185E0809321011092DF
:1005F00090012AC080E18093900180911E018823A0
:1006000041F065E086E191E04CDE80938F01882324
:10061000A1F354DF19C066E086E191E042DE8093E9
:100620008F018111F6CF80911E018111F4CFF1CF9E
:100630001092900185EC06C088EF80938F01109294
:10064000900185ED8093BC00FF91EF91BF91AF9138
:100650009F918F917F916F915F914F913F912F91DA
:100660000F900FBE0F901F901895CF93DF93CCEB98
:10067000D0E0188235DF1092900110928F01109215
:10068000B8001092BA0085EC88837894DF91CF91FE
:100690000895FC018185811115C0248135818681F1
:1006A0009781A901481B590BCA0157FF12C022812B
:1006B000338140815181241B350B2F5F3F4F820FC7
:1006C000931F08958281938120813181821B930B36
:1006D00001960895CF93DF93FC01C281D3812081DD
:1006E0003181C21BD30B2196D4DF9E01281B390B0D
:1006F000C901DF91CF910895FC0180819181978399
:1007000086839583848381E0808711860895FC0128
:1007100026813781828193812817390720F48681C9
:100720009781019602C0808191819783868311868B
:1007300026813781848195812817390711F481E05A
:1007400080870895CF93DC011696ED91FC91179761
:10075000C081DDDF8C2FCF910895FC01A481B5818C
:100760006C9324813581828193812817390720F485
:1007700084819581019602C08081918195838483D3
:1007800024813581868197812817390711F481E00A
:10079000818710860895EF92FF920F931F93CF9356
:1007A000DF938C017B01F7018085811113C0EA0181
:1007B0002197452B69F0F8018185811107C0C70198
:1007C000C1DF682FC801C9DFAE01EDCFAE0102C0A5
:1007D0004FEF5FEFCA01DF91CF911F910F91FF9013
:1007E000EF900895EF92FF920F931F93CF93DF93B3
:1007F0007C018B01EA015CD0AE01B7018AE52FD004
:10080000682FC8018C0F9D1FDF91CF911F910F9111
:10081000FF90EF9056C0EF92FF920F931F93CF93EC
:10082000DF938C017B01EA012BD0C7018C0F9D1F48
:1008300037D0F82EAE01B8018AE511D021E030E0C2
:100840008F1102C020E030E088279927821B930B8C
:10085000DF91CF911F910F91FF90EF900895FB01D1
:10086000460F571FE417F50751F09191892798E03B
:100870002CE8869508F482279A95D9F7F3CF089546
:10088000DC01CB01FC01F999FECF06C0F2BDE1BD50
:10089000F89A319600B40D9241505040B8F708953F
:1008A000F999FECF92BD81BDF89A992780B5089538
:1008B000DC01CB0102C02D9105D041505040D8F74A
:1008C0000895262FF999FECF1FBA92BD81BD20BD94
:1008D0000FB6F894FA9AF99A0FBE01960895F89413
:0208E000FFCF48
:1008E2002C014B012C012C010100FF4F016E014F25
:1008F200014F010100FF6F018E016F016F010100C5
:08090200FF0508802010010030
:00000001FF
